:020000040800F2
:10000000B0090020111E0008AB060008AD0600086C
:10001000B1060008B5060008B90600080000000097
:10002000000000000000000000000000BD06000805
:10003000BF06000800000000C1060008291E0008D5
:100040002B1E00082B1E00082B1E00082B1E00086C
:100050002B1E00082B1E00082B1E00082B1E00085C
:100060002B1E00082B1E00082B1E00082B1E00084C
:100070002B1E00082B1E00082B1E00082B1E00083C
:100080002B1E00082B1E00082B1E00082B1E00082C
:10009000FF0E00082B1E00082B1E00082B1E000858
:1000A0002B1E00082B1E00082B1E00082B1E00080C
:1000B000CF040008DF0D0008810600082B1E000891
:1000C0002B1E00082B1E00082B1E00082B1E0008EC
:1000D0002B1E00082B1E0008FB1700081B18000829
:1000E0002B1E00082B1E00082B1E00082B1E0008CC
:1000F0002B1E00082B1E00082B1E00082B1E0008BC
:100100002B1E00082B1E00082B1E00082B1E0008AB
:100110002B1E00082B1E00082B1E00082B1E00089B
:100120002B1E00082B1E00082B1E00082B1E00088B
:100130002B1E00082B1E00082B1E00082B1E00087B
:10014000BF1000082B1E00082B1E00082B1E0008E5
:100150002B1E00082B1E00082B1E00081506000889
:100160002B1E00082B1E00082B1E00082B1E00084B
:100170002B1E00082B1E00082B1E00082B1E00083B
:100180002B1E00082B1E000800F002F800F03CF8BF
:100190000AA090E8000C82448344AAF10107DA45E2
:1001A00001D100F031F8AFF2090EBAE80F0013F0F8
:1001B000010F18BFFB1A43F001031847204E00003F
:1001C000404E0000103A24BF78C878C1FAD85207D0
:1001D00024BF30C830C144BF04680C6070470000C1
:1001E0000023002400250026103A28BF78C1FBD840
:1001F000520728BF30C148BF0B6070471FB504F0DD
:10020000E7FE1FBD10B510BD04F012FC1146FFF74C
:10021000F5FF00F016F904F030FC03B4FFF7F2FF2D
:1002200003BC04F037FC000010B52DED028BB0EEDE
:10023000408A0024DE4890ED000A38EE400ADD488E
:10024000D0ED000A20EE200ABCEEC00A10EE100A23
:1002500084B22146002001F0EEFED74890ED000A5E
:1002600038EE400AD548D0ED000A20EE200ABCEE58
:10027000C00A10EE100A84B22146002001F0CEFE22
:10028000BDEC028B10BD10B50446032000F0ADFBA1
:10029000CB490880052001F09BFD022000F0A5FB62
:1002A000C7494880052001F093FD002000F09DFB28
:1002B000C3498880052001F08BFD012000F095FBEB
:1002C000BF49C880052001F083FDBD480088BD49B5
:1002D0000988401A00EE100AB8EEC00ABA4890ED3C
:1002E000001AC0EE010AB24890ED000A30EE800A12
:1002F00084ED000AB2484088B4490988401A00EEEB
:10030000100AF8EEC00AB24890ED001A80EE810A99
:10031000A748D0ED000A30EE200A84ED010AA84873
:100320008088AC490988401A00EE100AB8EEC00A6D
:10033000A94890ED001AC0EE010A9D4890ED000A10
:1003400030EE800A84ED020A9D48C088A3490988DE
:10035000401A00EE100AF8EEC00AA14890ED001A0B
:1003600080EE810A9248D0ED000A30EE200A84ED3A
:10037000030A10BD10B5944890ED000ABCEEC00A07
:1003800010EE100A000A974908708F4890ED000A95
:10039000BCEEC00A10EE100A48708A4800880012AD
:1003A000887088480078C870894890ED000ABCEED3
:1003B000C00A10EE100A000A0871854890ED000A84
:1003C000BCEEC00A10EE100A487180480088001286
:1003D00088717E480078C8717F4890ED000ABCEEB5
:1003E000C00A10EE100A000A08727B4890ED000A5D
:1003F000BCEEC00A10EE100A48727648008800125F
:10040000887274480078C872754890ED000ABCEE96
:10041000C00A10EE100A000A0873714890ED000A35
:10042000BCEEC00A10EE100A48736C480088001237
:1004300088736A480078C8731021002001F0ECFB33
:1004400010BD4FF4A06001F003FD01F03CFAA820BC
:1004500001F05CFC00F09AFE00F0F3FA4FF4165045
:1004600000F0EBFF32E06048008800F40040B0F597
:10047000004F2BD15D4800785D4908800846008810
:100480004FF6FF7101EA002059490880574840782B
:10049000098808445649088008460188002001F070
:1004A000BDFD53480188002001F0C5FD00204E49E4
:1004B000088001204F4908704C48007848704B482C
:1004C0004078887008214B4801F02EF8CBE710B532
:1004D0000121880703F033FF012863D146480078E3
:1004E00000F08000C8B10020434908700021434853
:1004F00003F0F6FA414803F0B7FA00EE100AB8EE3E
:10050000400A3F48D0ED000A20EE200ABCEEC00AA7
:1005100010EE100A3B49086012E0002036490870CE
:10052000384908603448007840F08000324908704B
:100530000021324803F094FA0121304803F0D0FA48
:100540003148007800F08000C8B100202E490870C2
:1005500000212E4803F0C4FA2C4803F085FA00EE7F
:10056000100AB8EE400A2648D0ED000A20EE200A14
:10057000BCEEC00A10EE100A2549086012E0002007
:1005800021490870224908601F48007840F0800027
:100590001D49087000211D4803F062FA01211B4823
:1005A00003F09EFA0121880703F0DAFE10BD000077
:1005B00024000020280000202C0000203000002013
:1005C0000A00002034000020380000203C000020F9
:1005D0004000002044000020480000204C00002083
:1005E00050000020BC01002060000020B40000206A
:1005F00056000020580000208C000020000400401D
:1006000088000020900000208D000020000800409D
:100610009400002070B5002540F22551294802F0D1
:10062000E7FB60B32848008800F4004030B10020A8
:1006300025490880C821254804F0AEF922480088E1
:1006400000F40040B0B90021214803F049FA1D48E8
:1006500002F00CFBC1B21C480488601C1A4A1080CE
:100660001A48015500211A4803F0FAF901211848E7
:1006700003F036FA40F22551124802F0F4FB70BD47
:1006800010B50121124803F05AFE48B10E48008807
:1006900040F400400C49088000210D4803F020FA86
:1006A00001210B4803F05CFE10BD704700BFFEE760
:1006B00000BFFEE700BFFEE700BFFEE770477047E0
:1006C000704700000014014060000020B4000020CA
:1006D000000800400CB500200190009076480068AA
:1006E00040F480307449086000BF7348006800F42B
:1006F000003000900198401C0190009818B90198B2
:10070000B0F5A04FF1D16C48006800F4003010B192
:100710000120009001E0002000900098012846D1BF
:1007200065484030006840F08050634940310860BF
:100730006248006840F44040604908605E48083004
:1007400000685D49083108600846006840F40040D0
:1007500008600846006840F4A05008605848091F27
:100760000860081F006840F08070091F086000BF23
:100770005148006800F000700028F9D040F2057080
:10078000504908604C480830006820F003004A498E
:10079000083108600846006840F00200086000BFA9
:1007A00045480830006800F00C000828F8D10CBD5E
:1007B00010B54548006840F47000434908603E4861
:1007C000006840F001003C49086000203A490831C7
:1007D0000860394800683D490840374908603C488E
:1007E000091D0860081F006820F48020091F0860A8
:1007F000002031490C310860FFF76CFF4FF00060BA
:1008000031498039086010BD70B5002000220223F4
:1008100000240221284D08352D6805F00C0020B178
:10082000042806D0082834D107E02A4D2A4E356026
:1008300033E02A4D284E35602FE01F4D2D1D2D68C9
:10084000C5F380541C4D2D1D2D6805F03F0154B19A
:10085000224DB5FBF1F5184E361D3668C6F38816E5
:1008600005FB06F209E01B4DB5FBF1F5124E361DF6
:100870003668C6F3881605FB06F20F4D2D1D2D6850
:10088000C5F301456D1C6B00B2FBF3F5124E3560EC
:1008900003E0104D104E356000BF00BF064D083517
:1008A0002D68C5F303150E4E705D0B4D2D68C540C8
:1008B000094E356070BD00000038024000700040F5
:1008C00008544007003C024088ED00E0FFFFF6FEC0
:1008D000103000240024F4006400002000127A008C
:1008E0006800002000BF011EA0F10100FBD170478D
:1008F00070B5054600F0C7F8C8B9912000F022F99C
:100900001420FFF7EFFF00F06CF94449087000F085
:10091000EBF800F066F94149487000F0E5F800F0A6
:10092000CCF83E484178007801EB002084B22046A4
:1009300070BD10B590203A4908700020487000F052
:10094000A2F868B9002409E03549085D00F0FAF81A
:100950004CF25030FFF7C6FF601CC4B2022CF3DB30
:1009600000F0ABF810BD10B5044634B1012C08D02E
:10097000022C0AD0032C10D10BE0C22029490870A8
:100980000CE0D2202749087008E0E22025490870D1
:1009900004E0F2202349087000E000BF00BF90206F
:1009A00021490870012048701E4800788870E320B3
:1009B000C87000F068F8A8B900201C4908700DE064
:1009C00019491A4A1278885C00F0BCF81420FFF725
:1009D00089FF16480078401C1449087013480078B5
:1009E0000428EDDB00F069F810BD70B5044625461B
:1009F0002846FFF7B8FF6420FFF774FFFFF799FF61
:100A00006420FFF76FFF2846FFF772FF0849088050
:100A10006420FFF767FF0648008870BD7C01002056
:100A20007C00002084000020780000208500002049
:100A300080000020372000BF011EA0F10100FBD183
:100A400070471CB50121022001F09EFE4FF440606A
:100A5000009000208DF8050001208DF80400002092
:100A60008DF8060001208DF80700C102734801F0DF
:100A700069FC4FF48061714801F064FC69466F487D
:100A800001F0E4FB1CBD10B54FF400616B4801F0B0
:100A900059FCFFF7CFFF4FF48061684801F052FC2A
:100AA000FFF7C8FF4FF40061644801F04DFCFFF709
:100AB000C1FFFFF7BFFF002010BD10B54FF400616C
:100AC0005E4801F041FCFFF7B5FF4FF480615B48E1
:100AD00001F038FCFFF7AEFF4FF40061574801F01A
:100AE00031FCFFF7A7FF10BD10B54FF4006153486C
:100AF00001F02AFCFFF79EFF4FF480614F4801F0A0
:100B000021FCFFF797FF4FF480614C4801F01CFC7B
:100B1000FFF790FF10BD10B54FF40061474801F09A
:100B200011FCFFF787FF4FF48061444801F00AFC95
:100B3000FFF780FF4FF48061404801F005FCFFF7AC
:100B400079FF10BD70B504464FF480613B4801F059
:100B5000FBFB002521E004F0800028B14FF4006188
:100B6000364801F0EFFB04E04FF40061334801F038
:100B7000EBFB6006040EFFF75DFF4FF480612F482A
:100B800001F0E0FBFFF756FF4FF480612B4801F0C6
:100B9000DBFBFFF74FFF681CC5B2082DDBDB4FF412
:100BA0000061264801F0CEFBFFF744FF4FF480615F
:100BB000224801F0C7FBFFF73DFF4FF400611F48DB
:100BC00001F0A6FB30B14FF480611C4801F0BCFB82
:100BD000002070BD4FF48061184801F0B5FB012082
:100BE000F7E770B54FF40061144801F0ABFB4FF428
:100BF0008061124801F0A8FB0024002519E04FF4A1
:100C000080610E4801F09EFBFFF714FF6006040EA2
:100C10004FF40061094801F07BFB08B144F0010486
:100C20004FF48061054801F08FFBFFF703FF681C5C
:100C3000C5B2082DE3DB204670BD00000004024071
:100C40001CB50121022001F0E8FD0121084601F058
:100C50009BFD4020009002208DF8040000208DF8BC
:100C6000060003208DF8050002208DF80700694674
:100C7000614801F0EBFA022206215F4801F071FBA6
:100C80005E48008840F001005C4908800846008802
:100C90004FF60F71084059490880584808300088BD
:100CA0004FF6F5710840554908310880534810380F
:100CB000008840F007005149103908800846008834
:100CC00020F0500008800846008840F0500008805E
:100CD0004A481838008840F001004849183908800F
:100CE0001CBD1CB50121042001F097FD0121082045
:100CF00001F04AFD4FF48050009002208DF804006E
:100D000000208DF8060003208DF8050002208DF8E4
:100D1000070069463A4801F099FA02220C21384846
:100D200001F01FFB3748008840F00100354908807A
:100D3000084600884FF60F71084032490880314854
:100D4000083000884FF6F57108402E4908310880B8
:100D50002C481038008840F007002A4910390880D4
:100D60000846008820F0500008800846008840F0BF
:100D70005000088023481838008840F001002149BD
:100D8000183908801CBD7FB505460C460121084670
:100D900001F043FD0295ADF804400020ADF80600D7
:100DA000ADF80C0001A94FF0804002F010FE0122C6
:100DB0001146900703F0ACFA0121880702F090FE7B
:100DC0001C208DF8000000208DF801008DF8020035
:100DD00001208DF80300684601F03FF87FBD10B593
:100DE00001210648183803F0AAFA012103481838EF
:100DF00003F0B6FA10BD00000000024018040040E5
:100E0000000C0240180800402DE9F0418AB0044669
:100E10000D4616461F46DDF840800121022001F0F4
:100E2000B3FC0121480601F0F8FC4FF44070089033
:100E300002208DF8240000208DF8260003208DF874
:100E4000250001208DF8270008A9CD4801F0FEF902
:100E500009221146CA4801F084FA09220821C8482B
:100E600001F07FFA00208DF81A008DF81B008DF834
:100E70001C0001208DF81D0000208DF81E008DF84B
:100E80001F008DF816808DF817408DF818608DF8CA
:100E90001950ADF8147005A9BA4802F00CF80020FA
:100EA0008DF80E008DF80F0001208DF81000002045
:100EB000ADF80400ADF80600ADF80800ADF80A0082
:100EC000ADF80C0001208DF8110001A802F07DF8AA
:100ED00001220221AB4802F077FB14208DF80000BC
:100EE00001208DF8010000208DF8020001208DF80E
:100EF0000300684600F0B1FF0AB0BDE8F08110B50C
:100F000086B0002401AA00219E4802F042FA00BFE8
:100F100000E0641C082CFCDB06B010BDF0B585B009
:100F200007460D46002412200090019000208DF805
:100F300008008DF809008DF80A5000BF05E0395D02
:100F40000DF10B000155601C84B2AC42F7DB694621
:100F50008C4802F029F90646002401E0601C84B2A6
:100F60003146884802F0B8F918B940F6FF7084425B
:100F7000F4DB40F6FF70844202DB012005B0F0BDD7
:100F80000020FBE730B585B0054600217D4802F022
:100F900083FA10B9002005B030BD6A4600217948B7
:100FA00002F0F7F9002404E00DF10B00005D285574
:100FB000641C9DF80A00A042F6D89DF80A00EAE7F2
:100FC0002DE9F0418AB004460D4616461F46DDF86D
:100FD00040800121022001F0D7FB0121480601F0E9
:100FE0001CFC0121880601F018FC602008900220FA
:100FF0008DF8240000208DF8260003208DF82500B0
:1010000001208DF8270008A95D4801F01FF9092289
:1010100005215B4801F0A5F909220621584801F095
:10102000A0F900208DF81A008DF81B008DF81C0027
:1010300001208DF81D0000208DF81E008DF81F0086
:101040008DF816808DF817408DF818608DF81950BE
:10105000ADF8147005A94C4801F02DFF0E208DF855
:101060000E0000208DF80F0001208DF810000020E8
:10107000ADF80400ADF80600ADF80800ADF80A00C0
:10108000ADF80C0001208DF8110001A801F09DFFC2
:10109000012202213C4802F097FA40208DF800001E
:1010A00001208DF8010000208DF8020001208DF84C
:1010B0000300684600F0D1FE0AB0BDE8F08110B52B
:1010C00086B0002401AA00212E4802F062F900BF78
:1010D00000E0641C082CFCDB06B010BDF0B585B048
:1010E00007460D46002412200090019000208DF844
:1010F00008008DF809008DF80A5000BF05E0395D41
:101100000DF10B000155601C84B2AC42F7DB69465F
:101110001D4802F049F80646002401E0601C84B234
:101120003146194802F0D8F818B940F6FF708442E9
:10113000F4DB40F6FF70844202DB012005B0F0BD15
:101140000020FBE730B585B0054600210E4802F0CF
:10115000A3F910B9002005B030BD6A4600210A4845
:1011600002F017F9002404E00DF10B00005D285592
:10117000641C9DF80A00A042F6D89DF80A00EAE730
:1011800000040240006400400068004000B587B0E1
:101190000121084601F0F8FA0121480701F03DFB62
:1011A0003020059003208DF8180002208DF81B00D8
:1011B00005A94E4801F04AF80020019002900390E2
:1011C0000220049001A9002000F0BDFE01A910201A
:1011D00000F0B9FE0121002000F0D2FE0121102014
:1011E00000F0CEFE0021084600F018FF002108465E
:1011F00000F021FF07B000BD70B52DED048B044653
:101200000D46284603F0D3FD41EC180B9FED380B3B
:1012100053EC102B51EC180B03F044FC41EC180B71
:101220009FED350B53EC102B51EC180B03F0D2FD56
:1012300041EC190B9FED320B53EC102B03F032FCF9
:1012400041EC180B14B1012C14D109E051EC180B2E
:1012500003F080FD86B23146002000F0DFFE09E099
:1012600051EC180B03F076FD86B23146002000F0F9
:10127000E2FE00BF00BFBDEC048B70BD70B52DED6C
:10128000048B04460D46284603F091FD41EC190BF2
:101290009FED1D0B53EC102B03F004FC41EC180BDD
:1012A00053EC182B9FED140B51EC100B03F092FD37
:1012B00041EC180B14B1012C14D109E051EC180BBE
:1012C00003F048FD86B23146002000F0A7FE09E099
:1012D00051EC180B03F03EFD86B23146002000F0C1
:1012E000AAFE00BF00BFBDEC048B70BD0000024031
:1012F0000000000000408F40000000000000B040EF
:101300006666666666660A40000000000000594096
:1013100010B588B004460121084601F035FA0121D4
:10132000084601F031FA0121102001F087FA072266
:101330000921FE4801F015F807220A21FB4801F0B7
:1013400010F84FF4C060069002208DF81C000320B6
:101350008DF81D0000208DF81E0001208DF81F0063
:1013600006A9F24800F072FF4FF480700690012049
:101370008DF81C0003208DF81D0000208DF81E0044
:1013800001208DF81F0006A9E84800F05FFF0294D5
:101390000020ADF80C00ADF80E00ADF81000ADF86F
:1013A00014000C20ADF8120002A9E14801F0A7FBDF
:1013B0000121DF4801F02BFC4021DD4801F00FFD49
:1013C000012240F22551DA4801F0D7FC25208DF8A2
:1013D000040001208DF805008DF806008DF8070047
:1013E00001A800F03AFD0120D249086008B010BD04
:1013F00070B505460E460020CE49086000240CE07A
:1014000000BF4021CA4801F0DDFC0028F9D0295D69
:10141000C74801F027FC601CC4B2B442F0DB00BF37
:101420004021C34801F0CEFC0028F9D00020C24979
:1014300008700120BF49086070BD10B588B004462F
:1014400042F2CF0140F2F31000F02EFC0121042003
:1014500001F09AF90121042001F096F901212020E0
:1014600001F0ECF908220721B44800F07AFF0822C5
:101470000621B24800F075FFC020069002208DF8CA
:101480001C0003208DF81D0000208DF81E00012097
:101490008DF81F0006A9A94800F0D8FE4FF400708F
:1014A000069001208DF81C0003208DF81D000020FF
:1014B0008DF81E0001208DF81F0006A99F4800F03E
:1014C000C5FE02940020ADF80C00ADF80E00ADF89A
:1014D0001000ADF814000C20ADF8120002A99848D5
:1014E00001F00DFB0121964801F091FB4021944849
:1014F00001F075FC012240F22551914801F03DFCBC
:1015000047208DF8040001208DF8050002208DF899
:10151000060001208DF8070001A800F09EFC0120C4
:101520008849086008B010BD70B505460E46002019
:101530008449086000240CE000BF4021804801F08D
:1015400041FC0028F9D0295D7D4801F08BFB601C2F
:10155000C4B2B442F0DB00BF4021794801F032FC54
:101560000028F9D0002078490870012075490860EA
:1015700070BD10B588B004460121082001F004F9BF
:101580000121082001F000F90121880401F045F94A
:10159000072209216D4800F0E4FE072208216B486C
:1015A00000F0DFFE4FF44070069002208DF81C0022
:1015B00003208DF81D0000208DF81E0001208DF8FD
:1015C0001F0006A9614800F041FE4FF4006006903C
:1015D00001208DF81C0003208DF81D0000208DF8DF
:1015E0001E0001208DF81F0006A9584800F02EFEAD
:1015F00002940020ADF80C00ADF80E00ADF810001C
:10160000ADF814000C20ADF8120002A9504801F00A
:1016100076FA01214E4801F0FAFA40214C4801F0D7
:10162000DEFB012240F22551494801F0A6FB2720AC
:101630008DF8040002208DF8050001208DF80600C9
:101640008DF8070001A800F008FC0120414908605E
:1016500008B010BD70B505460E4600203D49086033
:1016600000240CE000BF4021394801F0ABFB00280A
:10167000F9D0295D364801F0F5FA601CC4B2B442D5
:10168000F0DB00BF4021324801F09CFB0028F9D07C
:1016900000203149087001202E49086070BD10B546
:1016A00088B004460121084601F06EF801210820A7
:1016B00001F06AF80121480401F0AFF80722032184
:1016C0001A4800F04EFE07220221184800F049FE99
:1016D0000C20069002208DF81C0003208DF81D00C0
:1016E00000208DF81E0001208DF81F0006A90F486C
:1016F00000F0ACFD4FF48060069001208DF81C00D6
:1017000003208DF81D0000208DF81E0001208DF8AB
:101710001F0006A90D4800F099FD02940020ADF8C5
:101720000C00ADF80E00ADF8100017E0000002400C
:1017300000100140A0024042980000200008024032
:1017400000140140A402414299000020000C024014
:1017500000480040AC8241429A000020ADF81400DD
:101760000C20ADF8120002A9344801F0C8F901219B
:10177000324801F04CFA4021304801F030FB0122A0
:1017800040F225512D4801F0F8FA26208DF804008A
:1017900002208DF805008DF8060001208DF8070065
:1017A00001A800F05AFB01202549086008B010BDCF
:1017B00070B505460E4600202149086000240CE063
:1017C00000BF40211D4801F0FDFA0028F9D0295D35
:1017D0001A4801F047FA601CC4B2B442F0DB00BF03
:1017E0004021164801F0EEFA0028F9D000201549F2
:1017F000087001201249086070BD10B540F22551F3
:101800000E4801F0F5FA38B101200F49087040F296
:1018100025510A4801F027FB10BD10B540F22551B3
:101820000A4801F0E5FA38B101200949087040F290
:101830002551064801F017FB10BD00000044004090
:10184000A88241429B0000209E00002000480040EA
:101850009D0000200246002105E0481CC1B2C829B5
:1018600001DD00207047F748008800F002000028E2
:10187000F3D0F448001D0280002105E0481CC1B2ED
:10188000C82901DD0020EDE7EE48008800F00100E6
:101890000028F3D0EB48001D0088C0B2E2E710B585
:1018A000C82000F04DFA4FF48051E74800F04AFD9F
:1018B00010BD10B54FF48051E34800F045FDC8203D
:1018C00000F03EFA10BD00B587B00121880300F09A
:1018D000A4FF0121022000F057FF0021D948083859
:1018E00002F060FF05220E21D74800F03AFD0522E4
:1018F0000F21D54800F035FD05220D21D24800F01A
:1019000030FD4FF46040059002208DF81800032050
:101910008DF8190000208DF81A008DF81B0005A91C
:10192000C94800F093FC4FF48050059002208DF8D8
:10193000190001208DF8180003208DF819000020EF
:101940008DF81A008DF81B0005A9BF4800F07EFC39
:101950000020ADF800004FF48270ADF802000020C6
:10196000ADF804000220ADF806000120ADF8080033
:101970004002ADF80A001020ADF80C000020ADF8D0
:101980000E000720ADF810000121AE48083802F023
:1019900047FF6946AB48083802F00AFE0121A94812
:1019A000083802F0FFFE4FF48051A74800F0CAFC4F
:1019B00007B000BD0246002105E0481C81B2C829DD
:1019C00001DD002070479F48008800F002000028D9
:1019D000F3D09C48001D0280002105E0481C81B224
:1019E000C82901DD0020EDE79648008800F00100DD
:1019F0000028F3D09348001D0088C0B2E2E710B57C
:101A0000FFF757FF0620FFF7D5FFFFF748FF10BD90
:101A100010B5FFF74EFF0420FFF7CCFFFFF73FFFA5
:101A200010BD10B5FFF7EBFFFFF743FF0120FFF7F5
:101A3000C1FF8220FFF7BEFFFFF731FF10BD10B5D9
:101A4000FFF7DDFFFFF735FF0520FFF7B3FF0020AD
:101A5000FFF7B0FF0446FFF722FF204610BD70B528
:101A600004460E46FFF7CBFFFFF723FF0220FFF7E8
:101A7000A1FFC4F30720FFF79DFFE0B2FFF79AFF35
:101A80003046FFF797FFFFF70AFF00BFFFF7D7FFCA
:101A9000054605F001000028F8D170BD2DE9F041A0
:101AA00004460D461646FFF7AAFFFFF702FF022085
:101AB000FFF780FFC4F30720FFF77CFFE0B2FFF7DA
:101AC00079FF002705E02878FFF774FF6D1C781C6C
:101AD000C7B2B742F7DBFFF7E2FEBDE8F08170B5B1
:101AE0000446FFF7E6FE0320FFF764FFC4F3072078
:101AF000FFF760FFE0B2FFF75DFF0020FFF75AFF3E
:101B00000546FFF7CCFE284670BD10B50024FFF750
:101B1000D0FE0520FFF79EFEFF20FFF79BFE044648
:101B2000FFF7BDFE204610BD10B50446FFF7C1FE0D
:101B30000120FFF78FFE2046FFF78CFEFFF7AFFE78
:101B400010BD10B5FFF7B5FE0620FFF783FEFFF7C7
:101B5000A6FE10BD10B5FFF7ACFE0420FFF77AFE1D
:101B6000FFF79DFE10BD10B500BFFFF7CEFF00F0E0
:101B700001000028F9D110BD70B50446FFF799FEA9
:101B8000002501E0681CC5B2082DFBDB0320FFF730
:101B900061FEC4F30720FFF75DFEE0B2FFF75AFED7
:101BA000FF20FFF757FE0646FFF7DDFFFFF777FE42
:101BB000304670BD70B504460D46FFF7C2FF642085
:101BC00000F0BEF8FFF7A1FF642000F0B9F8FFF7BE
:101BD00070FE642000F0B4F80220FFF73BFE6420A2
:101BE00000F0AEF8C4F30720FFF734FE642000F0E5
:101BF000A7F8E0B2FFF72EFE642000F0A1F8284617
:101C0000FFF728FE4FF4FA6000F09AF8FFF747FE5E
:101C1000642000F095F870BD70B505460E460024AE
:101C200006E02819FFF75BFF08490855601C84B2DD
:101C3000B442F6D370BD2DE9F04105460E46174675
:101C400000240BE008380040000402408402002019
:101C50003019FFF791FF2855601C84B2BC42F7DBB6
:101C6000BDE8F08170B505460E46002406E00D4A39
:101C7000115D2819FFF7F3FE601C84B2B442F6D35D
:101C800070BD2DE9F04105460E461746002405E0DB
:101C9000295D3019FFF78EFF601C84B2BC42F7DB70
:101CA000BDE8F081BC0100207FB505460C4601214E
:101CB000042000F0B2FD0295ADF804400020ADF81C
:101CC0000600ADF80C0001A90F4801F080FE1E20AF
:101CD0008DF8000000208DF8010001208DF8020031
:101CE0008DF80300684600F0B8F80121064802F0BC
:101CF00037FB01221146044802F00AFB002102488A
:101D000001F0EEFE7FBD00000008004010B5044663
:101D10006FF0040000F0EEF8E11704EB5171C1F32D
:101D2000C701394A11701046007800EB4001C1EB41
:101D3000C0104FF6FF7101EAC0003449088010BDA1
:101D40000146314A12784A434FF0E0235A6100229B
:101D50009A611A46126942F001021A6100BF4FF0FF
:101D6000E022106900F001021AB100F48032002A6A
:101D7000F5D04FF0E022126922F001024FF0E0238B
:101D80001A6100229A6170470146204A12884A432C
:101D90004FF0E0235A6100229A611A46126942F01C
:101DA00001021A6100BF4FF0E022106900F0010249
:101DB0001AB100F48032002AF5D04FF0E022126907
:101DC00022F001024FF0E0231A6100229A6170476D
:101DD00070B504464FF4077094FBF0F0C6B24FF4B0
:101DE000077094FBF0F100FB114085B205E04FF461
:101DF0000770FFF7C9FF701EC6B2002EF7D115B1EC
:101E00002846FFF7C1FF70BDA0000020A2000020FF
:101E10000948804709480047FEE7FEE7FEE7FEE77E
:101E2000FEE7FEE7FEE7FEE7FEE7FEE704480549BA
:101E3000054A064B70470000B107000889010008F9
:101E4000B0030020B0090020B0050020B00500203C
:101E500032490143324A1160704770B500210023B6
:101E60000F22C4781CB32E4C246804F4E064C4F53B
:101E7000E064C4F30721C1F10404E3B20A414478E9
:101E80009C40E1B28478144021430C07210E254C7C
:101E900005786155047804F01F050124AC400578ED
:101EA0006D11AD0005F1E025C5F8004109E00478A9
:101EB00004F01F050124AC401B4D0678761145F84F
:101EC000264070BD194A0A400243154B1B1F1A6079
:101ED000704739B1124A121D12680243104B1B1D84
:101EE0001A6006E00E4A121D126882430C4B1B1D3D
:101EF0001A607047042808D14FF0E021096941F0C9
:101F000004014FF0E022116107E04FF0E021096980
:101F100021F004014FF0E022116170470000FA0542
:101F20000CED00E000E400E080E100E080FFFF1F36
:101F300010B50121480700F0C5FC00214FF000500A
:101F400000F0C0FC10BD30B5002200237B4C22689D
:101F500040F6FE748440A243D1E900452C438D68CD
:101F60002C43CD6844EA050303FA00F42243734C82
:101F7000226030BD0021016041608160C160704716
:101F800039B16E4A1268012383401A436B4B1A60C1
:101F900006E06A4A1268012383409A43674B1A603D
:101FA000704710B551B1654A121D1268040901232A
:101FB000A3401A43614B1B1D1A6009E05F4A121DC2
:101FC000126804090123A3409A435C4B1B1D1A604D
:101FD00010BD40B15949091D096841F00301574A34
:101FE000121D116007E05549091D096821F0030120
:101FF000524A121D1160704710B53AB14F4B1B6821
:1020000001FA00F423434D4C236006E04B4B1B6860
:1020100001FA00F4A343494C236010BD08B5002227
:102020000092464A009200F10802009B1A44009276
:10203000009A116008BD08B5002200923F4A009244
:1020400000F11402009B1A440092009A116008BD2E
:1020500030B500240023082802D142EA012401E01F
:1020600042EA0144354B00F120052B441C6030BD91
:1020700008B5014600200090304800902C2000EB6D
:102080009100009A104400900098006880B208BD4A
:1020900041B12A4A12684FF4805383401A43274BB8
:1020A0001A6007E0254A12684FF4805383409A4330
:1020B000224B1A60704710B53AB1204B1B6801FAE9
:1020C00000F423431D4C236006E01C4B1B6801FAFF
:1020D00000F4A343194C236010BD10B50246002044
:1020E000164B34331B6801FA02F423400BB1012074
:1020F00000E0002010BD01FA00F2104B34331A60EA
:10210000704730B50246002000230C4C246801FAC9
:1021100002F504EA0503094C3434246801FA02F597
:102120002C4014B10BB1012000E0002030BD01FAB9
:1021300000F2024B34331A60704700000074004014
:1021400010B504469848844208D10121084600F0A1
:1021500086FB0021012000F082FB76E09348844258
:1021600008D10121022000F07AFB0021022000F0BA
:1021700076FB6AE08E48844208D10121042000F0F9
:102180006EFB0021042000F06AFB5EE08948844277
:1021900008D10121082000F062FB0021082000F096
:1021A0005EFB52E08448844208D10121102000F0F7
:1021B00056FB0021102000F052FB46E07F4884428D
:1021C00008D10121202000F04AFB0021202000F04E
:1021D00046FB3AE07A48844208D10121402000F0D1
:1021E0003EFB0021402000F03AFB2EE0754884427F
:1021F00008D10121802000F032FB0021802000F076
:102200002EFB22E07048844208D10121801500F0A5
:1022100026FB0021A01500F022FB16E06B4884424B
:1022200008D10121401500F01AFB0021601500F0D3
:1022300016FB0AE06648844207D10121001500F030
:102240000EFB0021201500F00AFB10BDF0B50A4678
:1022500000210023002400BF3DE0012505FA01F321
:10226000156805EA03049C4234D105684F00032633
:10227000BE40B543056015794E00B540066835434C
:1022800005601579012D02D01579022D16D18568CA
:102290004F000326BE40B543856055794E00B540DA
:1022A000866835438560456801268E40B5434560A4
:1022B000456896798E40B6B235434560C5684F0093
:1022C0000326BE40B543C560D5794E00B540C6680B
:1022D0003543C560491C1029BFD3F0BD4FF6FF71CF
:1022E00001600021017141718171C171704708B5B0
:1022F0004FF480320092009A0A430092009AC26121
:10230000C161009AC261C2690092C269009208BDAF
:102310000246002013690B400BB1012000E00020B1
:1023200070470146086980B2704702460020536931
:102330000B400BB1012000E00020704701464869C6
:1023400080B2704701837047418370470AB10183AF
:1023500000E0418370474161704742694A404261F1
:102360007047F0B5002300244D07ED0E02FA05F387
:10237000CE1000F1200555F826504E07F70E0F2617
:10238000BE40B543CF1000F1200646F82750CE10CE
:1023900000F1200555F8265045EA0304CE1000F15F
:1023A000200545F82640F0BD000002400004024030
:1023B00000080240000C02400010024000140240DD
:1023C00000180240001C024000200240002402408D
:1023D00000280240F948006840F00100F749086011
:1023E0000020F64908310860F4480068F4490840C4
:1023F000F2490860F348091D0860F348EF49843149
:102400000860F0481038091D0860EC48006820F4A6
:102410008020EA4908600020E8490C310860E7495B
:102420008C31086070470021E44A921C11701146FB
:102430000870704710B501460022002300204A11A1
:10244000012A02D1DD4C236808E0022A03D1DB4CCB
:102450007034236802E0D94C7434236801F01F0201
:10246000012494401C400CB1012000E0002010BD6C
:1024700038B5002000900024002500BF3120FFF770
:10248000D9FF05460098401C00900098B0F5A04F79
:1024900001D0002DF2D03120FFF7CCFF08B101248C
:1024A00000E00024204638BD01460020C34A1068E1
:1024B00020F0F80040EAC10010607047C34908608E
:1024C00070470021BD4A703211701170012802D08E
:1024D00004280AD104E00121B84A7032117005E0E5
:1024E0000521B64A7032117000E000BF00BF70478E
:1024F000B7490860704770B5049C41EA821501260F
:10250000C6EB530645EA0645054345EA0465AB4E6E
:10251000361D356070BDAD4908667047820142EADC
:102520000172A64B84331A607047A84988667047C9
:1025300010B5830143EA016343EA02739F4C883478
:10254000236010BDA14908677047A049C86470475F
:1025500002460020994B0833186820F0EC6042EAEC
:1025600001031843954B083318607047024600205A
:10257000924B0833186820F0784042EA0103184370
:102580008E4B083318607047014600208B4A083292
:10259000106820F003000843106070478748083037
:1025A000006800F00C00704701460020834A0832A2
:1025B000106820F0F00008431060704701460020CA
:1025C0007E4A0832106820F4E050084310607047DB
:1025D00001460020794A0832106820F4604040EA41
:1025E000C10010607047F0B50021002200240225D0
:1025F00000260223714F08373F6807F00C0121B114
:10260000042905D0082937D105E0724F076036E06C
:10261000714F076033E0694F3F1D3F68C7F3805635
:10262000664F3F1D3F6807F03F036EB16A4FB7FB2F
:10263000F3F7DFF888C10CF1040CDCF800C0CCF330
:10264000881C07FB0CF40CE0624FB7FBF3F7DFF8D4
:102650006CC10CF1040CDCF800C0CCF3881C07FB47
:102660000CF4564F3F1D3F68C7F301477F1C7D00A8
:10267000B4FBF5F7076002E0564F076000BF00BFEC
:102680004E4F08373F6807F0F0010909534F7A5C55
:102690000768D7404760494F08373F6807F4E05163
:1026A000890A4E4F7A5C4768D7408760434F0837A6
:1026B0003F6807F46041490B484F7A5C4768D74050
:1026C000C760F0BD002100F44072B2F5407F0AD12E
:1026D0003A4A0832116821F4F811414A0240114384
:1026E000364A08321160354A70321268C0F30B0363
:1026F0001A43324B70331A607047354944390860C9
:102700007047334940390860704736490860704760
:1027100001460020294A8C32106820F01F004A1E12
:102720001043264A8C321060704701460020234A2D
:102730008C32106820F4F8504A1E40EA02201F4AEA
:102740008C3210607047014600201C4A8C321068A1
:1027500020F4401008431060704701460020174ADB
:102760008C32106820F44000084310607047014626
:102770000020124A8C32106820F440300843106068
:10278000704719490860704739B10C4A30321268F5
:1027900002430A4B30331A6006E0084A30321268AE
:1027A0008243064B30331A607047F9B1034A343222
:1027B00012680243014B34331A601CE000380240B7
:1027C000FFFFF6EA103000240030002000004742EE
:1027D000800E47420024F40000127A00A40000207A
:1027E000FFFCFF0F5C014742E01147428F4A12682D
:1027F00082438E4B1A60704739B18C4A121D1268A1
:1028000002438A4B1B1D1A6006E0884A121D12689B
:102810008243864B1B1D1A60704739B1834A0C32C4
:1028200012680243814B0C331A6006E07F4A0C3277
:10283000126882437D4B0C331A60704739B17B4A72
:10284000103212680243794B10331A6006E0774A5F
:10285000103212688243754B10331A60704739B1D9
:10286000724A243A12680243704B243B1A6006E015
:102870006E4A243A126882436C4B243B1A607047BC
:1028800039B16A4A203A12680243684B203B1A6009
:1028900006E0664A203A12688243644B203B1A6085
:1028A000704739B1614A1C3A126802435F4B1C3BC6
:1028B0001A6006E05D4A1C3A126882435B4B1C3B7F
:1028C0001A60704739B1594A143A12680243574B9B
:1028D000143B1A6006E0554A143A12688243534B7F
:1028E000143B1A60704739B1504A103A12680243DB
:1028F0004E4B103B1A6006E04C4A103A1268824375
:102900004A4B103B1A60704739B1484A1C32126872
:102910000243464B1C331A6006E0444A1C321268DC
:102920008243424B1C331A60704739B13F4A203210
:10293000126802433D4B20331A6006E03B4A2032C6
:1029400012688243394B20331A60704739B1374AD5
:10295000243212680243354B24331A6006E0334AAE
:10296000243212688243314B24331A60704739B1E4
:102970002E4A2C32126802432C4B2C331A6006E08C
:102980002A4A2C3212688243284B2C331A60704733
:1029900039B1264A303212680243244B30331A6070
:1029A00006E0224A303212688243204B30331A60EC
:1029B0007047012808D11D493C31096841F00801E0
:1029C0001A4A3C32116007E018493C31096821F08D
:1029D0000801164A3C321160704739B1134A273A50
:1029E00012780243114B273B1A7006E00F4A273A30
:1029F000127882430D4B273B1A7070470B484030CA
:102A0000006840F080700949403108607047014615
:102A10000020064A283A12680A400AB1012000E064
:102A20000020704701492639087070473438024049
:102A300010B50446FA48844208D101211020FFF75E
:102A400052FF00211020FFF74EFF57E0F548844267
:102A500009D101214804FFF735FF00214FF4003070
:102A6000FFF730FF4AE0F048844209D10121880491
:102A7000FFF728FF00214FF48020FFF723FF3DE000
:102A8000EA48844209D10121C804FFF71BFF002155
:102A90004FF40020FFF716FF30E0E548844209D1EB
:102AA00001210805FFF70EFF00214FF48010FFF70A
:102AB00009FF23E0DF48844208D101212020FFF7ED
:102AC00012FF00212020FFF70EFF17E0DA488442B2
:102AD00009D101218807FFF7F5FE00214FF0804062
:102AE000FFF7F0FE0AE0D548844207D101214005F6
:102AF000FFF7E8FE00216005FFF7E4FE10BD2DE9B9
:102B0000FF4705460E460024A14600BFA046B089F7
:102B100000B100BF2C8A24F44054F08804432C8276
:102B2000AC8941F20C608443B088318908437189D3
:102B300008430443AC81AC8A24F44074B089044354
:102B4000AC826846FFF74FFDB548854202D0B948D0
:102B5000854202D1DDF80C9001E0DDF80890A889EB
:102B600000F4004040B109EBC90000EB09103168E6
:102B70004900B0FBF1F707E009EBC90000EB0910D1
:102B800031688900B0FBF1F76420B7FBF0F0040175
:102B90002009642101FB1078A88900F4004040B1AD
:102BA000322000EBC800B0FBF1F000F00700044356
:102BB00008E0322000EB08106421B0FBF1F000F0D7
:102BC0000F0004432C81BDE8FF874FF416510160CC
:102BD00000218180C18001810C21418100218181FE
:102BE000704710B502460020108A20F470600B88F0
:102BF0004C8823438C882343CC882343184310827A
:102C000010BD0021018041808180C180704721B1C9
:102C1000828942F40052828104E082894DF6FF737A
:102C20001A4082817047028B02F47F420283028B3A
:102C30000A430283704721B1828942F400428281B3
:102C400003E08289C2F30E028281704721B1828A39
:102C500042F40062828204E0828A4FF2FF731A40DB
:102C600082827047C1F308028280704701468888DB
:102C7000C0F308007047028A4FF6F0731A400282D0
:102C8000028A0A430282704721B1828942F002021D
:102C9000828104E082894FF6FD731A408281704779
:102CA00082894FF2FF731A40828182890A438281AE
:102CB0007047028A4FF6DF731A400282028A0A4383
:102CC0000282704721B1028A42F48042028204E00B
:102CD000028A4BF6FF731A4002827047818941F0E5
:102CE00001018181704721B1828A42F0080282820B
:102CF00004E0828A4FF6F7731A4082827047028B93
:102D0000D2B20283028B42EA01220283704721B1D0
:102D1000828A42F02002828204E0828A4FF6DF73C8
:102D20001A408282704721B1828A42F01002828268
:102D300004E0828A4FF6EF731A4082827047828ADB
:102D40004FF6FB731A408282828A0A43828270475E
:102D500021B1828A42F00202828204E0828A4FF626
:102D6000FD731A40828270471AB1838A0B438382B3
:102D700002E0838A8B4383827047F0B503460024C8
:102D800000260025002040F66A17B94200D100BF96
:102D90001846C1F3421401F01F06012707FA06F591
:102DA000012C01D10C3004E0022C01D1103000E0E4
:102DB00014301AB107682F43076002E00768AF4379
:102DC0000760F0BD02460020B1F5007F00D100BFD2
:102DD00013880B400BB1012000E00020704701F484
:102DE0000072B2F5007F00D100BFCA430280704775
:102DF00070B50246002400230025002040F66A1624
:102E0000B14200D100BFC1F3421501F01F030126FA
:102E100006FA03F3012D13D19689334017E0000021
:102E2000001001400044004000480040004C0040B9
:102E3000005000400014014000780040007C004039
:102E4000022D02D1168A334001E0968A33400C12DB
:102E5000012606FA04F41688344013B10CB101209F
:102E600000E0002070BD10B50022002340F66A1477
:102E7000A14200D100BF0A1201249440A3B2DC4356
:102E8000048010BD10B50446FE48844209D10121DA
:102E90004806FFF717FD00214FF00070FFF712FD05
:102EA00008E001218806FFF70DFD00214FF080604A
:102EB000FFF708FD10BD30B502460020002314685E
:102EC00024F002041460146844F00104146000E06B
:102ED0005B1C546804F001041CB94FF6FF74A34254
:102EE000F6D1546804F001040CB900206CE08C7930
:102EF000012C04D1146844F08004146003E01468C9
:102F000024F080041460CC79012C04D1146844F0BE
:102F10004004146003E0146824F0400414600C7A48
:102F2000012C04D1146844F02004146003E01468F8
:102F300024F0200414604C7A012C04D1146844F06D
:102F40001004146003E0146824F0100414608C7AF8
:102F5000012C04D1146844F00804146003E01468E0
:102F600024F008041460CC7A012C04D1146844F0D5
:102F70000404146003E0146824F0040414608C78E2
:102F8000A407CD7844EA05640D7944EA05444D79F7
:102F900044EA05540D886D1E2C43D461146824F056
:102FA00001041460002300E05B1C546804F0010479
:102FB0001CB14FF6FF74A342F6D1546804F001042B
:102FC0000CB1002000E0012030BD10B50021837A53
:102FD000012202FA03F1AC4A126842F00102AA4B44
:102FE0001A60A94A1C3212688A43A74B1C331A6024
:102FF000027BCAB9A44A0C3212688A43A24B0C3332
:103000001A604288C38842EA03439F4A4032847A66
:1030100042F834300288838842EA03439A4A4032B5
:10302000847A02EBC4025360027B012A19D1964ACA
:103030000C3212680A43944B0C331A60428803889E
:1030400042EA0343904A4032847A42F83430C288DC
:10305000838842EA03438C4A4032847A02EBC402FA
:103060005360C27A3AB9884A121D12688A43864B65
:103070001B1D1A6006E0844A121D12680A43824B27
:103080001B1D1A60028932B97F4A143212688A43C2
:103090007D4B14331A600289012A06D17A4A143210
:1030A00012680A43784B14331A60427B012A06D116
:1030B000754A1C3212680A43734B1C331A60724AF9
:1030C000126822F00102704B1A6010BD002181715C
:1030D000C171017241728172C1728170C17003212C
:1030E000017102214171012101807047664909681F
:1030F00041F00101644A11601146096843F60E72FD
:103100009143614A11601146096841EA002111604A
:103110001146096821F001011160704721B1026870
:1031200042F48032026003E0026822F480320260DE
:103130007047E1B1026842F0800202604FF4C2724F
:10314000125842F480734FF4C27213504FF4CA7293
:10315000125842F480734FF4CA7213504FF4D27273
:10316000125842F480734FF4D27213501BE002687D
:1031700022F0800202604FF4C272125822F480736F
:103180004FF4C27213504FF4CA72125822F4807373
:103190004FF4CA7213504FF4D272125822F4807353
:1031A0004FF4D2721350704710B502460020936856
:1031B00003F08063B3F1806F00D110E0936803F0F7
:1031C0000063B3F1006F01D1012008E0936803F0C0
:1031D0008053B3F1805F01D1022000E00420042875
:1031E00079D002F5C07303EB00131B6803F00104F0
:1031F00002F5C07303EB00131C600B7A7BB94B7AAA
:103200000C8843EA445302F5C07404EB00142468AC
:10321000234302F5C07404EB0014236010E00B7A22
:103220004C6843EAC4034C7A234302F5C07404EBB0
:1032300000142468234302F5C07404EB00142360D7
:103240008B7A03F00F038B7202F5C07303EB00134C
:103250005B6823F00F0402F5C07303EB00135C609E
:1032600002F5C07303EB00135B688C7A234302F50D
:10327000C07404EB001463608B7B1C064B7B44EA38
:10328000034403E000640040006600400B7B44EA16
:103290000323CC7A234302F5C07404EB0014A3602B
:1032A0008B7C1C064B7C44EA03440B7C44EA0323DE
:1032B000CC7B234302F5C07404EB0014E36002F5F9
:1032C000C07303EB00131B6843F0010402F5C073E5
:1032D00003EB00131C6010BD10B50246002321B1A2
:1032E000012907D002290FD109E09068F94C00EAC2
:1032F00004030BE09068F84C00EA040306E09068D1
:10330000F64C00EA040301E0002300BF00BFF44CC8
:10331000181BA34216D007DC83B16FF080601844FD
:1033200070B1022818D111E0B0F5007F10D0ED4C3B
:10333000204448B1B0F5003F0ED10BE002230DE070
:1033400000230BE0002309E0002307E0012305E050
:10335000012303E0012301E0002300BF00BFD8B236
:1033600010BD21B1012907D002290FD109E08268DF
:1033700042F0800282600AE0826842F40042826089
:1033800005E0826842F40002826000E000BF00BFF6
:10339000704710B500F5D87303EB01131B6803F0F9
:1033A00004031372137A53B900F5D87303EB0113B6
:1033B0001B6840F2FF7404EA5353136009E000F500
:1033C000D87303EB01131B686FF0604404EAD30366
:1033D000536000F5D87303EB01131B6803F002037D
:1033E000537200F5D87303EB01135B6803F00F030E
:1033F000937200F5D87303EB01135B681B0AD37457
:1034000000F5D87303EB01139B68D37200F5D873F2
:1034100003EB01139B681C0A147300F5D87303EBCC
:1034200001139B681C0C547300F5D87303EB011354
:103430009B681B0E937300F5D87303EB0113DB68D5
:10344000D37300F5D87303EB0113DB681C0A147403
:1034500000F5D87303EB0113DB681C0C547400F502
:10346000D87303EB0113DB681B0E937421B9C36897
:1034700043F02003C36003E0036943F020030361CA
:1034800010BD21B9C26842F02002C26003E00269A7
:1034900042F02002026170470246002019B9D36849
:1034A00003F0030006E0012903D1136903F00300D0
:1034B00000E00020704710B502460B4600204FF692
:1034C000FF71BBB9146824F0020444F001041460D5
:1034D00000E0491E546804F00304012C01D00029C7
:1034E000F7D1546804F00304012C01D0002032E02D
:1034F000012030E0012B13D1146824F00304146080
:1035000000E0491E546804F003040CB10029F8D10E
:10351000546804F003040CB100201CE001201AE000
:10352000022B17D1146824F0010444F00204146043
:1035300000E0491E546804F00304022C01D0002965
:10354000F7D1546804F00304022C01D0002002E0FB
:10355000012000E0002010BD014600200A6822F092
:10356000010242F002020A604A6802F00302022AE3
:1035700000D10120704701464FF6FF7200200B6812
:1035800023F002030B6000E0521E4B6803F00203BD
:10359000022B01D1002AF7D14B6803F00203022B62
:1035A00000D001207047014600208A6902F07000B7
:1035B0007047014600208A69100E704701460020BE
:1035C0008A69C2F3074070471AB143690B434361EC
:1035D00002E043698B434361704710B50246002007
:1035E00001F4700343B19369C1F3130423400BB199
:1035F00001202DE000202BE001F0807343B15368DF
:10360000C1F3130423400BB1012021E000201FE08F
:1036100001F0006343B19368C1F3130423400BB17D
:10362000012015E0002013E001F0007343B1D368DE
:10363000C1F3130423400BB1012009E0002007E08F
:103640001369C1F3130423400BB1012000E00020F3
:1036500010BD0022244B994202D10023836111E066
:10366000C1F3130201F000730BB1C2600AE001F074
:1036700080630BB1026105E001F000630BB1826071
:1036800000E0426070470246002002EA01030BB1ED
:10369000012000E00020704770B504460D4600266A
:1036A00060692840002872D0B5F5807F69D01DDCA4
:1036B000082D42D006DC012D2DD0022D31D0042D55
:1036C0007FD134E0102D3ED0202D42D0402D78D136
:1036D00045E00000030000040003000800000310A0
:1036E000000100080001FFF77000F030B5F5004F51
:1036F00061D009DCB5F5007F4AD0B5F5806F4DD0BB
:10370000B5F5006F5DD150E0B5F5803F2DD0B5F532
:10371000003F56D12FE0A0685549FFF7B4FF064699
:1037200051E0E0680321FFF7AEFF06464BE0E0689A
:103730000821FFF7A8FF064645E0E0681021FFF7E3
:10374000A2FF06463FE020690321FFF79CFF0646E3
:1037500039E020690821FFF796FF064633E020692B
:103760001021FFF790FF06462DE060680821FFF763
:103770008AFF064627E060681021FFF784FF0646AF
:1037800021E0A0690121FFF77EFF06461BE01BE058
:10379000A0690221FFF777FF064614E0A069042123
:1037A000FFF771FF06460EE00BE0A0697021FFF7FE
:1037B0006AFF064607E060680421FFF764FF0646DB
:1037C00001E0002600BF00E00026304670BDB1F5E4
:1037D000007F3AD00FDC202928D006DC01291CD03C
:1037E00004291DD0082940D11DE0402921D0B1F580
:1037F000807F3AD126E0B1F5004F31D006DCB1F53B
:10380000806F25D0B1F5006F2FD124E0B1F5803F56
:1038100012D0B1F5003F28D111E0154A826025E0B1
:103820000822C26022E01022C2601FE0082202616A
:103830001CE01022026119E00822426016E010220A
:10384000426013E00422426010E0042242600DE076
:10385000042242600AE0002282610422426005E004
:10386000002282610422426000E000BF00BF704776
:103870000101010010B50446FE48844208D101212F
:103880000846FFF730F800210120FFF72CF89DE0F3
:10389000B4F1804F08D101210846FFF713F8002149
:1038A0000120FFF70FF891E0F348844208D101218D
:1038B0000220FFF707F800210220FFF703F885E058
:1038C000EE48844208D101210420FEF7FBFF0021CD
:1038D0000420FEF7F7FF79E0E948844208D101218E
:1038E0000820FEF7EFFF00210820FEF7EBFF6DE058
:1038F000E448844208D101211020FEF7E3FF0021B3
:103900001020FEF7DFFF61E0DF48844208D101218B
:103910002020FEF7D7FF00212020FEF7D3FF55E03F
:10392000DA48844208D101210220FEF7DCFF0021A1
:103930000220FEF7D8FF49E0D548844209D1012191
:103940000804FEF7D0FF00214FF48030FEF7CBFFD4
:103950003CE0D048844209D101214804FEF7C3FF6E
:1039600000214FF40030FEF7BEFF2FE0CA4884422A
:1039700009D101218804FEF7B6FF00214FF4802011
:10398000FEF7B1FF22E0C548844208D10121402062
:10399000FEF798FF00214020FEF794FF16E0C04894
:1039A000844208D101218020FEF78CFF0021802075
:1039B000FEF788FF0AE0BB48844207D10121801549
:1039C000FEF780FF0021A015FEF77CFF10BD00224E
:1039D0000288A84B98420ED0AC4B98420BD0B0F165
:1039E000804F08D0A44B984205D0A44B984202D0F7
:1039F000A34B984204D14FF68F731A404B881A4359
:103A0000A04B984207D0A04B984204D04FF6FF43FA
:103A10001A400B891A4302804B68C3620B880385E6
:103A2000944B984202D0994B984201D18B7A0386ED
:103A30000123838270474FF0FF31416000210180F4
:103A400001814180817270470185828270470A46F8
:103A5000002101884FF68F73194011430180704790
:103A600041627047C16270470146486A704701462B
:103A7000088D704721B1028842F00202028004E002
:103A800002884FF6FD731A400280704721B1028808
:103A900042F00402028004E002884FF6FB731A40F1
:103AA0000280704721B1028842F08002028004E067
:103AB00002884FF67F731A400280704702884FF6E3
:103AC000F7731A40028002880A4302807047028816
:103AD0004FF6FF431A40028002880A430280704773
:103AE00021B1028842F00102028004E002884FF610
:103AF000FE731A400280704770B500240022002334
:103B0000058C4FF6FE7635400584028C8388048B45
:103B10004FF68F752C40B51E2C400D882C43751E1A
:103B20002A408D892A434D882A43524DA84202D00B
:103B3000564DA84213D14FF6F7752A40CD892A4336
:103B40004FF6FB752A408D882A434FF6FF652B40C0
:103B50004FF6FF552B400D8A2B434D8A2B43838014
:103B600004838D684563028470BD70B50024002213
:103B70000023058C4FF6EF7635400584028C838850
:103B8000048B48F6FF752C404FF6FF452C400D88FE
:103B90004FF6FF7606EA05252C434FF6DF752A40DF
:103BA0008D8906EA05152A434D8806EA05152A433C
:103BB000304DA84202D0354DA8421DD14FF67F7539
:103BC0002A40CD894FF6FF7606EA05152A434FF6BF
:103BD000BF752A408D8806EA05152A434FF6FF3542
:103BE0002B404FF2FF752B400D8A06EA85052B43CB
:103BF0004D8A06EA85052B43838004838D6885639F
:103C0000028470BD70B5002400220023058C4FF69D
:103C1000FF6635400584028C8388848B4FF68F7550
:103C20002C404FF6FC752C400D882C434FF6FF5569
:103C30002A408D894FF6FF7606EA05252A434D88EE
:103C400006EA05252A430B4DA84202D00F4DA84293
:103C500038D14FF2FF752A40CD894FF6FF7606EA3C
:103C600005252A434FF6FF352A408D8806EA0525AB
:103C70002A4319E000000140000400400008004011
:103C8000000C0040001000400014004000040140FF
:103C9000004001400044014000480140001800403D
:103CA000001C0040002000404EF6FF752B404DF6F2
:103CB000FF752B400D8A06EA05152B434D8A06EA4F
:103CC00005152B43838084838D68C563028470BD92
:103CD00070B5002200230024058C4EF6FF76354097
:103CE0000584038C8488828B48F6FF752A404FF642
:103CF000FF452A400D884FF6FF7606EA05252A4340
:103D00004DF6FF752B408D8906EA05352B434D880E
:103D100006EA05352B43FE4DA84202D0FD4DA842D0
:103D200008D14BF6FF752C400D8A4FF6FF7606EA58
:103D300085152C43848082838D680564038470BD5F
:103D4000002101804180818081608181C181018267
:103D50004182704770B50346002000241846183091
:103D600001258D40ACB21D8CA5431D8409B10829E5
:103D70000AD100EB610005684FF68F76354005608B
:103D80000568154305600FE00D1FC5F34E05284477
:103D9000056848F6FF763540056005684FF6FF7602
:103DA00006EA02263543056070BD416370478163B2
:103DB0007047C1637047016470470A460021018B58
:103DC0004FF68F7319401143018370470A46002153
:103DD000018B48F6FF7319404FF6FF7303EA022385
:103DE0001943018370470A460021818B4FF68F7378
:103DF00019401143818370470A460021818B48F6A0
:103E0000FF7319404FF6FF7303EA022319438183BE
:103E100070470A460021018B4FF6F7731940114392
:103E2000018370470A460021018B4FF2FF7319404E
:103E30004FF6FF7303EA02231943018370470A46D2
:103E40000021818B4FF6F77319401143818370472E
:103E50000A460021818B4FF2FF7319404FF6FF7322
:103E600003EA02231943818370470A460021018B2C
:103E70004FF6FB7319401143018370470A46002136
:103E8000018B4FF6FF3319404FF6FF7303EA02230D
:103E90001943018370470A460021818B4FF6FB735B
:103EA00019401143818370470A460021818B4FF6E8
:103EB000FF3319404FF6FF7303EA0223194381834E
:103EC00070470A460021018B4FF67F73194011435A
:103ED000018370470A460021018BC1F30E014FF6A2
:103EE000FF7303EA02231943018370470A46002146
:103EF000818B4FF67F7319401143818370470A46C7
:103F00000021818BC1F30E014FF6FF7303EA0223F8
:103F10001943818370470A460021018C4FF6FD73D7
:103F200019401143018470470A460021018C4FF665
:103F3000F77319401143018470470A460021018C30
:103F40004FF6DF7319404FF6FF7303EA021319436C
:103F5000018470470A460021018C4FF67F73194097
:103F60004FF6FF7303EA02131943018470470A46B0
:103F70000021018C4FF6FF5319404FF6FF7303EAFF
:103F800002231943018470470A460021018C4FF235
:103F9000FF7319404FF6FF7303EA022319430184AC
:103FA00070470A460021018C4DF6FF7319404FF609
:103FB000FF7303EA023319430184704730B50023CD
:103FC00001248C40A3B2048C9C430484048C02FA28
:103FD00001F5ADB22C43048430BD30B50023042478
:103FE0008C40A3B2048C9C430484048C02FA01F537
:103FF000ADB22C43048430BD828B4FF2FF331A40A4
:104000008283828B4FF6FF7303EA01231A43828374
:104010007047F0B50C461546002100220026078C9B
:104020004EF6FF7C07EA0C070784818B028C4FF663
:10403000FF7707EA043640F6FF4739404FF6FF772F
:1040400007EA052739434FF6FF7707EA0337394375
:1040500045F6FF773A4046F480573A43818302841D
:10406000F0BD828B4FF6F3731A408283828B0A4332
:1040700082837047F0B50C461546002100220026C9
:10408000078C4FF6FF6C07EA0C070784818B028CC4
:104090004FF6FF7707EA04264FF60C7739404FF6C4
:1040A000FF7707EA03172F4339434FF2FF573A4090
:1040B00046F480773A4381830284F0BD028B4FF24D
:1040C000FF331A400283028B4FF6FF7303EA01238A
:1040D0001A4302837047F0B50C46154600210022B2
:1040E0000026078C4FF6EF7C07EA0C070784018B4C
:1040F000028C4FF6FF7707EA041640F6FF47394077
:104100004FF6FF7707EA033739434FF6FF7703E0AF
:10411000000001400004014007EA052739434FF63B
:104120005F773A4046F010073A4301830284F0BDBE
:10413000028B4FF6F3731A400283028B0A43028309
:104140007047F0B50C46154600210022068C4FF64C
:10415000FE773E400684018B028C4FF60C76314090
:104160007E1C06EA03162E4331434FF6F5763240A5
:1041700044F00106324301830284F0BD70B5054668
:104180000C46208850B92389A28861882846FFF709
:10419000D8FFE1882846FFF7CBFF25E020880428D8
:1041A0000AD12389A28861882846FFF794FFE18815
:1041B0002846FFF783FF17E0208808280AD12389C3
:1041C000A28861882846FFF755FFE1882846FFF757
:1041D00048FF09E02389A28861882846FFF719FF74
:1041E000E1882846FFF708FF70BD0021018041806B
:1041F000012181800021C180018170472DE9F041BA
:1042000005460C4600260127608808B9022600E012
:104210000026A088012801D1022700E0012720887C
:10422000A0B92389A28861882846FFF78AFFE18820
:104230002846FFF77DFF23893A4631462846FFF797
:104240004AFFE1882846FFF739FF13E02389A28857
:1042500061882846FFF73FFFE1882846FFF72EFFD9
:1042600023893A4631462846FFF76BFFE188284606
:10427000FFF75EFFBDE8F0810146486B70470146DD
:10428000886B70470146C86B70470146086C7047E1
:104290000A884B881A438B881A43CB881A430B89A8
:1042A0001A434B891A438B891A43A0F8442070475C
:1042B0000021018041808180C18001814181818113
:1042C000704731B1B0F8442042F40042A0F84420D5
:1042D00005E0B0F84420C2F30E02A0F84420704775
:1042E00021B1828842F00402828004E082884FF685
:1042F000FB731A408280704721B1828842F001022C
:10430000828004E082884FF6FE731A4082807047F4
:104310001AB183890B43838102E083898B438381B4
:1043200070478182704702460020138A0B400BB110
:10433000012000E000207047CA430282704730B578
:104340000246002000230024158A05EA010395890E
:1043500005EA010413B10CB1012000E0002030BDDA
:10436000CA430282704741EA0203A0F8483070470E
:104370001AB183890B43838102E083898B43838154
:10438000704721B1828842F00802828004E082886E
:104390004FF6F7731A408280704701894FF6F87222
:1043A0001140018170470A46002101894FF68F7341
:1043B000194011430181704730B504460D46294626
:1043C0002046FFF7F0FF208940F00700208130BD34
:1043D0002DE9F04104460D4616461F46602D06D1D4
:1043E0003B46012231462046FFF775FE05E03B467D
:1043F000012231462046FFF7A4FE29462046FFF75A
:10440000D2FF208940F007002081BDE8F08130B55F
:104410000C4600210189C9B24FF6FF7505EA032554
:10442000154325432943018130BD2DE9F04105465F
:104430000E4617469846002443463A4631462846DB
:10444000FFF7E5FF2C894FF6F870044044F00704AD
:104450004FF68F70044044F070042C81BDE8F08169
:10446000F0B504460D4616461F463B4632462946E1
:104470002046FFF7CCFF208940F480402081F0BD2A
:1044800082884FF68F731A40828082880A43828026
:10449000704702894FF6F8731A40028102890A4375
:1044A0000281704702894FF67F731A4002810289A8
:1044B0000A4302817047F0B50C4615461E4600219E
:1044C000002200230189028B038C4FF6F8773940D4
:1044D00021434FF6FC473A4040F201173A434FF66A
:1044E000DD773B404FF6FF7707EA06172F433B4344
:1044F000018102830384F0BD21B1828842F08002F1
:10450000828004E082884FF67F731A408280704771
:10451000A0F850107047000010B50446FB488442D4
:1045200008D101218014FEF7DEF90021A014FEF766
:10453000DAF93CE0F648844208D101210014FEF784
:10454000C1F900212014FEF7BDF930E0F1488442A2
:1045500008D10121C013FEF7B5F90021E013FEF7E1
:10456000B1F924E0EC48844208D101214014FEF75F
:10457000BAF900216014FEF7B6F918E0E748844262
:1045800009D101210805FEF7AEF900214FF4801092
:10459000FEF7A9F90BE0E248844208D10121480561
:1045A000FEF7A1F900214FF40010FEF79CF910BDB1
:1045B00010B50022028802F441520B884C88234334
:1045C0008C882343CC8823430C8923434C89234381
:1045D0008C892343CC8923431A430280838B4FF277
:1045E000FF74234083830B8A038210BD2DE9F04FB3
:1045F0000025022300244FF0010900220026002795
:1046000094469046B0F81CA04FF2400B0AEA0B0A01
:10461000A0F81CA04FF0020AA0F820A0858BD1F8CA
:1046200008A0BAF1020F01D100BF82E0B1F804A0E6
:10463000BAF1000F02D14FF0010901E04FF0020979
:10464000DFF8E0A2DAF800A00AF4000ABAF1000FDD
:1046500009D0DFF8D0A2DAF800A02AF4000ADFF8C7
:10466000C4B2CBF800A0DFF8BCA20AF17C0ADAF8E9
:1046700000A0CAF3881CDFF8ACA20AF17C0ADAF8C1
:1046800000A0CAF30278DFF89CA2AAF1040ADAF8C3
:1046900000A00AF03F07DFF88CA2AAF1040ADAF8BA
:1046A00000A00AF4800ABAF5800F08D1DFF878A2DA
:1046B000BAFBF7FA0AFB0CFABAFBF8F607E0DFF8E8
:1046C0006CA2BAFBF7FA0AFB0CFABAFBF8F6B1F8DF
:1046D00006A0BAF5007F0ED14FEA162A0AEB8A0A25
:1046E0004FEA4A0AD1F808B0BAFBFBFA0AF1050A08
:1046F0001FFA8AF20FE04FEA491AB6FBFAFA0AEB00
:104700008A0A4FEA4A0AD1F808B0BAFBFBFA0AF162
:10471000050A1FFA8AF24FF00A0AB2FBFAF202F017
:104720000104A2EB040ACAF34F034FF6FF7A0AEA28
:104730000424022B01DBFF2B01DD02230024B1F84E
:1047400006A04AEA040A4AEA030AA0F820A0B1F83F
:1047500004A0B1F80CB04AEA0B0AB1F802B04AEA78
:104760000B0AB1F800B04AEA0B0A4AF4006A4AEAB6
:1047700005058583BDE8F08F00210180418081809F
:10478000C180018141818181C181072101827047FE
:104790000021018041808180C1800221816000214F
:1047A0008181704721B1028842F04002028004E01A
:1047B00002884FF6BF731A400280704721B1828B86
:1047C00042F48062828304E0828B4FF6FF331A400A
:1047D0008283704702884FF2FF731A40028002887A
:1047E0000A4302807047B1F5804F04D1028842F439
:1047F0008042028004E002884BF6FF731A40028078
:1048000070474FF6FF62914204D0028842F48072F2
:10481000028004E002884FF6FF631A40028070476E
:1048200021B1828842F00402828004E082884FF63F
:10483000FB731A408280704721B1828842F01002D7
:10484000828004E082884FF6EF731A4082807047BE
:1048500030B500220023848B4FF240052C40848326
:1048600002240484828B0C88B4F5007F01D00C886C
:1048700014B94FF4807308E00C88B4F5407F03D07E
:104880000C88B4F5807F00D100238C888D892C435F
:104890004D882C431C4344F400642243828330BD82
:1048A0000146888970478181704721B1028842F4AE
:1048B0000052028004E002884DF6FF731A40028025
:1048C0007047018841F48051018070470246002002
:1048D000012901D0108B00E0908A70470146088AB8
:1048E00070471AB183880B43838002E083888B432F
:1048F0008380704730B5002400230C110125A540AA
:10490000ABB2AAB185881D43858014E00030014018
:1049100000380040003C004000340140005001409D
:10492000005401400838024000127A000024F400CC
:1049300085889D43858030BD0246002013890B4049
:104940000BB1012000E000207047CA43028170478C
:10495000F0B50246002000240023002501F00F07D7
:104960000126BE40B4B20B1101269E40B3B2968818
:1049700006EA03051689264016B10DB1012000E0B4
:104980000020F0BD10B5002201F00F040123A34068
:104990009AB2D343038110BD4FF000020429C0F046
:1049A000128010F0030C00F01E80CCF1040CBCF15E
:1049B000020F18BF00F8012BA8BF20F8022BA1EBB3
:1049C0000C0100F010B85FEAC17C24BF00F8012B95
:1049D00000F8012B48BF00F8012B70477047704763
:1049E00070474FF0000200B51346944696462039B2
:1049F00022BFA0E80C50A0E80C50B1F12001BFF498
:104A0000F7AF090728BFA0E80C5048BF0CC05DF8FD
:104A100004EB890028BF40F8042B08BF704748BF4B
:104A200020F8022B11F0804F18BF00F8012B7047BF
:104A3000754600F02BF8AE4605006946534620F057
:104A40000700854618B020B5FDF7F0F9BDE8204015
:104A50004FF000064FF000074FF000084FF0000B3A
:104A600021F00701AC46ACE8C009ACE8C009ACE8ED
:104A7000C009ACE8C0098D46704710B50446AFF3D5
:104A800000802046BDE81040FBF7C7BB00487047D8
:104A90004C03002001491820ABBEFEE726000200AF
:104AA000704700002DE9C04130B4DFF8A0C23CEAF5
:104AB000111418BF3CEA131400F0EC8081EA0305DE
:104AC0001CEA111444EAD57418BF1CEA131500F04F
:104AD000C780A4EB05044FF0004545EAC12145EA33
:104AE000C32341EA505143EA525304F17F7499427F
:104AF00004F500344FEAC0204FEAC22208BF9042BA
:104B000000F09C804FEA13650FF24016765D4FEA85
:104B1000134506FB05F7C7F1807706FB07F74FEA59
:104B2000D737A7FB03687642C8F58038A7FB06CEC7
:104B300038BFA8F1010807FB08E64FF0000EA6FBFE
:104B4000028CE6FB03CEDCF1000CCEF1004E38BF48
:104B5000AEF1010EA6FB0C584FF000074FF0000518
:104B6000E6FB0E87A1FB08C6A0FB07CE16EB0E06E0
:104B700045F10005E1FB076515F1E04E7EBFA4F5A8
:104B800080345FEA46066D4116F1800745F1000565
:104B90004FEA17274FEA066647EA0567A6F1DE46A1
:104BA000B6F1805F4FEA15251FD9384624F0010C75
:104BB00005EBC471BCF1FE6F01EB0C1102D8F0BC27
:104BC000BDE8008124425CBF01F5801E9EEAC47FDF
:104BD00002D4F0BCBDE80081244238D4F0BCA1F17D
:104BE000C041BDE8004100F0EDB94FEAD22242EAEF
:104BF00043524FEAD323A7FB02864FEAD02040EA74
:104C0000415007FB03661EEA0E0F4FEAD12105FB58
:104C1000026658BFA6EB0056B6EB00564FEA520E9E
:104C20004EEAC37E18EB0E0E56EB530EBDD518EBB5
:104C300002085E417F1C55F10005B6E74FF4801570
:104C40004FF000074FF000064FF00008ADE7F0BC52
:104C50004FF0000001F1C04101F00041BDE80081CA
:104C600011EA0C1F0CEA131500D00CE013EA0C1F1C
:104C700000F025804FF00000F0BC81EA030101F054
:104C80000041BDE80081F0BCBDE8004181EA0301BC
:104C900000F098B9F0BCBDE8004170B500F044F9EF
:104CA000097EFC3E00F007B881EA03014FF00000E6
:104CB00001F00041704781EA030100F083B9F0BCC4
:104CC000BDE800414FF0000021497047FFFDFBF9AE
:104CD000F7F5F4F2F0EEEDEBE9E8E6E4E3E1E0DE2F
:104CE000DDDBDAD8D7D5D4D3D1D0CFCDCCCBCAC8A1
:104CF000C7C6C5C4C2C1C0BFBEBDBCBBBAB9B8B7C8
:104D0000B6B5B4B3B2B1B0AFAEADACABAAA9A8A8BA
:104D1000A7A6A5A4A3A3A2A1A09F9F9E9D9C9C9B88
:104D20009A99999897979695959493939291919033
:104D30008F8F8E8E8D8C8C8B8B8A898988888787C4
:104D40008685858484838382828181800000FF0739
:104D50000000F87F4FEA1153A3F58063D3F11E03DF
:104D6000A8BFD3F1200C08DB4FF0004242EAC12279
:104D700052EA505232FA03F0704709420BD4102B1A
:104D8000C4BF0020704703F5787CBCF1FF3F05D01D
:104D90004FF0FF3070474FF00000704770B500F0E3
:104DA000C3F800BF4992248000207047F0E7B0FAB2
:104DB00080F310FA03F10AD0C3F11D0303F58063F9
:104DC0004FEA41504FEA035202EBD12170474FF0B6
:104DD00000007047DFF848C170B51CEA111E1EBF05
:104DE0001CEA13159EEA0C0F95EA0C0F00F06F8079
:104DF00081EA030423EA4C134EEAD47E21EA4C11E3
:104E000041F4801143F48013AE44A1FB024CA0FB9B
:104E10000365AEF17F7E361955EB0C05A1FB034C03
:104E20004CF10003A0FB021C16EB0C06654153F18C
:104E30000003094218BF46F0010613F4007F0BD1AE
:104E40004FEA03314FEA0530340341EA155140EA95
:104E500016506FF003020AE04FEAC3214FEAC52063
:104E6000F40241EA555140EA56506FF0020202EB5B
:104E70002E4201EB025585EACE710AD05FEA440C5E
:104E800018BF24F0004450F1000041F1000120EA75
:104E9000D47040F2FE7C624500D270BDA84214BFBF
:104EA0004FF080444FF04044002E08BF0024BEF174
:104EB000806FA8BFA1F1C041BDE8704080F2828040
:104EC0004FF0000001F1C04101F0004170479EEA3F
:104ED0000C0F0CEA131518BF95EA0C0F06D04FF013
:104EE000000081EA030E0EF0004170BD00F01CF8D6
:104EF0008900013E00F007B800F009B84FEA430C02
:104F00005FEA5C5C08D081EA030100F05BB84FEA1D
:104F1000410C5FEA5C5CF6D14FF00000014970473C
:104F20000000FF070000F87F0EF1020E2EF0030EC6
:104F30005EF8046B364205D4012A43EB030515F5F0
:104F4000001F12D8012841EB010C1CF5001F0CD8E2
:104F50000ED14FEAD17C15F5001F0CEB4C0C0CF177
:104F6000020C08BF4CEBD37C04E04FF0080C01E0CE
:104F70004FEAD37C0CEB4C0526FA05F606F0070643
:104F8000B6F1040C06D20EEB860CBDE870404CF076
:104F9000010C6047DFE80CF0090B02024FF0004102
:104FA0004FF00000A1F5002170BD19461046012800
:104FB00051EB010418BFD4F5001484BF002001F0A8
:104FC000004170BD0808A0F500114FEA310170479B
:104FD0004FF04070E1EE100A70470000FC4F0008EF
:104FE00000000020B4000000C4010008B050000818
:104FF000B4000020FC080000E00100089A99B940C4
:10500000000055000000000000000000000000004B
:105010000000000000000000000000000000000090
:105020009A99993E000044430AD7A33E00004343A7
:1050300015010000008078441501000000807844CC
:1050400015010000008078442001000000807944B0
:105050000000000000000000000000000000000050
:10506000007A030A000000000000000001020304AF
:10507000060708090000000000000600000000000C
:1050800000000000000000400000000000000000E0
:105090000000000000000000000000000000000010
:1050A00000000000010203040102030406070809CE
:040000050800018965
:00000001FF
